{
  "address": "0xbef3Df72E73872feed8c456bbB3E377b44Ff5878",
  "abi": [
    {
      "inputs": [
        {
          "internalType": "address",
          "name": "_address",
          "type": "address"
        },
        {
          "internalType": "string",
          "name": "_name",
          "type": "string"
        }
      ],
      "stateMutability": "nonpayable",
      "type": "constructor"
    },
    {
      "anonymous": false,
      "inputs": [
        {
          "indexed": false,
          "internalType": "address",
          "name": "_address",
          "type": "address"
        },
        {
          "indexed": false,
          "internalType": "string",
          "name": "_name",
          "type": "string"
        }
      ],
      "name": "StoredName",
      "type": "event"
    },
    {
      "inputs": [
        {
          "internalType": "address",
          "name": "_address",
          "type": "address"
        }
      ],
      "name": "get_name",
      "outputs": [
        {
          "internalType": "string",
          "name": "",
          "type": "string"
        }
      ],
      "stateMutability": "view",
      "type": "function"
    },
    {
      "inputs": [
        {
          "internalType": "string",
          "name": "_name",
          "type": "string"
        }
      ],
      "name": "store_name",
      "outputs": [],
      "stateMutability": "nonpayable",
      "type": "function"
    }
  ],
  "transactionHash": "0x60326212e920989d298d8156dd04e5ebb8414c62a9e40e6efb75dfa35822e5a9",
  "args": [
    "0xdC5f4f0bE199443BbFa0796B414710ecF492b36f",
    "Darlington"
  ],
  "numDeployments": 1,
  "solcInputHash": "522524d46e88a43d1713f62f5eaa3d69",
  "bytecode": "0x60806040523480156200001157600080fd5b5060405162000f1038038062000f108339818101604052810190620000379190620002c0565b806000808473ffffffffffffffffffffffffffffffffffffffff1673ffffffffffffffffffffffffffffffffffffffff168152602001908152602001600020908162000084919062000571565b507f5e9104e3f1a491b06aaf00f14d150dcde8def5fe7a02bfd060b890076ad0b7cb8282604051620000b8929190620006bb565b60405180910390a15050620006ef565b6000604051905090565b600080fd5b600080fd5b600073ffffffffffffffffffffffffffffffffffffffff82169050919050565b60006200010982620000dc565b9050919050565b6200011b81620000fc565b81146200012757600080fd5b50565b6000815190506200013b8162000110565b92915050565b600080fd5b600080fd5b6000601f19601f8301169050919050565b7f4e487b7100000000000000000000000000000000000000000000000000000000600052604160045260246000fd5b62000196826200014b565b810181811067ffffffffffffffff82111715620001b857620001b76200015c565b5b80604052505050565b6000620001cd620000c8565b9050620001db82826200018b565b919050565b600067ffffffffffffffff821115620001fe57620001fd6200015c565b5b62000209826200014b565b9050602081019050919050565b60005b838110156200023657808201518184015260208101905062000219565b60008484015250505050565b6000620002596200025384620001e0565b620001c1565b90508281526020810184848401111562000278576200027762000146565b5b6200028584828562000216565b509392505050565b600082601f830112620002a557620002a462000141565b5b8151620002b784826020860162000242565b91505092915050565b60008060408385031215620002da57620002d9620000d2565b5b6000620002ea858286016200012a565b925050602083015167ffffffffffffffff8111156200030e576200030d620000d7565b5b6200031c858286016200028d565b9150509250929050565b600081519050919050565b7f4e487b7100000000000000000000000000000000000000000000000000000000600052602260045260246000fd5b600060028204905060018216806200037957607f821691505b6020821081036200038f576200038e62000331565b5b50919050565b60008190508160005260206000209050919050565b60006020601f8301049050919050565b600082821b905092915050565b600060088302620003f97fffffffffffffffffffffffffffffffffffffffffffffffffffffffffffffffff82620003ba565b620004058683620003ba565b95508019841693508086168417925050509392505050565b6000819050919050565b6000819050919050565b6000620004526200044c62000446846200041d565b62000427565b6200041d565b9050919050565b6000819050919050565b6200046e8362000431565b620004866200047d8262000459565b848454620003c7565b825550505050565b600090565b6200049d6200048e565b620004aa81848462000463565b505050565b5b81811015620004d257620004c660008262000493565b600181019050620004b0565b5050565b601f8211156200052157620004eb8162000395565b620004f684620003aa565b8101602085101562000506578190505b6200051e6200051585620003aa565b830182620004af565b50505b505050565b600082821c905092915050565b6000620005466000198460080262000526565b1980831691505092915050565b600062000561838362000533565b9150826002028217905092915050565b6200057c8262000326565b67ffffffffffffffff8111156200059857620005976200015c565b5b620005a4825462000360565b620005b1828285620004d6565b600060209050601f831160018114620005e95760008415620005d4578287015190505b620005e0858262000553565b86555062000650565b601f198416620005f98662000395565b60005b828110156200062357848901518255600182019150602085019450602081019050620005fc565b868310156200064357848901516200063f601f89168262000533565b8355505b6001600288020188555050505b505050505050565b6200066381620000fc565b82525050565b600082825260208201905092915050565b6000620006878262000326565b62000693818562000669565b9350620006a581856020860162000216565b620006b0816200014b565b840191505092915050565b6000604082019050620006d2600083018562000658565b8181036020830152620006e681846200067a565b90509392505050565b61081180620006ff6000396000f3fe608060405234801561001057600080fd5b50600436106100365760003560e01c80638a2266d31461003b578063f3a0a3a914610057575b600080fd5b6100556004803603810190610050919061033f565b610087565b005b610071600480360381019061006c91906103e6565b61010f565b60405161007e9190610492565b60405180910390f35b806000803373ffffffffffffffffffffffffffffffffffffffff1673ffffffffffffffffffffffffffffffffffffffff16815260200190815260200160002090816100d291906106ca565b507f5e9104e3f1a491b06aaf00f14d150dcde8def5fe7a02bfd060b890076ad0b7cb33826040516101049291906107ab565b60405180910390a150565b606060008060008473ffffffffffffffffffffffffffffffffffffffff1673ffffffffffffffffffffffffffffffffffffffff168152602001908152602001600020805461015c906104e3565b80601f0160208091040260200160405190810160405280929190818152602001828054610188906104e3565b80156101d55780601f106101aa576101008083540402835291602001916101d5565b820191906000526020600020905b8154815290600101906020018083116101b857829003601f168201915b5050505050905080915050919050565b6000604051905090565b600080fd5b600080fd5b600080fd5b600080fd5b6000601f19601f8301169050919050565b7f4e487b7100000000000000000000000000000000000000000000000000000000600052604160045260246000fd5b61024c82610203565b810181811067ffffffffffffffff8211171561026b5761026a610214565b5b80604052505050565b600061027e6101e5565b905061028a8282610243565b919050565b600067ffffffffffffffff8211156102aa576102a9610214565b5b6102b382610203565b9050602081019050919050565b82818337600083830152505050565b60006102e26102dd8461028f565b610274565b9050828152602081018484840111156102fe576102fd6101fe565b5b6103098482856102c0565b509392505050565b600082601f830112610326576103256101f9565b5b81356103368482602086016102cf565b91505092915050565b600060208284031215610355576103546101ef565b5b600082013567ffffffffffffffff811115610373576103726101f4565b5b61037f84828501610311565b91505092915050565b600073ffffffffffffffffffffffffffffffffffffffff82169050919050565b60006103b382610388565b9050919050565b6103c3816103a8565b81146103ce57600080fd5b50565b6000813590506103e0816103ba565b92915050565b6000602082840312156103fc576103fb6101ef565b5b600061040a848285016103d1565b91505092915050565b600081519050919050565b600082825260208201905092915050565b60005b8381101561044d578082015181840152602081019050610432565b60008484015250505050565b600061046482610413565b61046e818561041e565b935061047e81856020860161042f565b61048781610203565b840191505092915050565b600060208201905081810360008301526104ac8184610459565b905092915050565b7f4e487b7100000000000000000000000000000000000000000000000000000000600052602260045260246000fd5b600060028204905060018216806104fb57607f821691505b60208210810361050e5761050d6104b4565b5b50919050565b60008190508160005260206000209050919050565b60006020601f8301049050919050565b600082821b905092915050565b6000600883026105767fffffffffffffffffffffffffffffffffffffffffffffffffffffffffffffffff82610539565b6105808683610539565b95508019841693508086168417925050509392505050565b6000819050919050565b6000819050919050565b60006105c76105c26105bd84610598565b6105a2565b610598565b9050919050565b6000819050919050565b6105e1836105ac565b6105f56105ed826105ce565b848454610546565b825550505050565b600090565b61060a6105fd565b6106158184846105d8565b505050565b5b818110156106395761062e600082610602565b60018101905061061b565b5050565b601f82111561067e5761064f81610514565b61065884610529565b81016020851015610667578190505b61067b61067385610529565b83018261061a565b50505b505050565b600082821c905092915050565b60006106a160001984600802610683565b1980831691505092915050565b60006106ba8383610690565b9150826002028217905092915050565b6106d382610413565b67ffffffffffffffff8111156106ec576106eb610214565b5b6106f682546104e3565b61070182828561063d565b600060209050601f8311600181146107345760008415610722578287015190505b61072c85826106ae565b865550610794565b601f19841661074286610514565b60005b8281101561076a57848901518255600182019150602085019450602081019050610745565b868310156107875784890151610783601f891682610690565b8355505b6001600288020188555050505b505050505050565b6107a5816103a8565b82525050565b60006040820190506107c0600083018561079c565b81810360208301526107d28184610459565b9050939250505056fea2646970667358221220140df45eb3c9b8261a2d6f6b3b5913d367aa150b45b9fc915a62ad59e734477664736f6c63430008130033",
  "devdoc": {
    "kind": "dev",
    "methods": {},
    "version": 1
  },
  "userdoc": {
    "kind": "user",
    "methods": {},
    "version": 1
  },
  "storageLayout": {
    "storage": [
      {
        "astId": 5,
        "contract": "contracts/min_ens/ENS.sol:ENS",
        "label": "names",
        "offset": 0,
        "slot": "0",
        "type": "t_mapping(t_address,t_string_storage)"
      }
    ],
    "types": {
      "t_address": {
        "encoding": "inplace",
        "label": "address",
        "numberOfBytes": "20"
      },
      "t_mapping(t_address,t_string_storage)": {
        "encoding": "mapping",
        "key": "t_address",
        "label": "mapping(address => string)",
        "numberOfBytes": "32",
        "value": "t_string_storage"
      },
      "t_string_storage": {
        "encoding": "bytes",
        "label": "string",
        "numberOfBytes": "32"
      }
    }
  }
}